:020000040800F2
:10000000000002208D140008DD140008DD14000833
:10001000DD140008DD140008DD14000800000000F5
:10002000000000000000000000000000DD140008D7
:10003000DD14000800000000DD140008DD140008D5
:10004000DD140008DD140008DD140008DD140008CC
:1000500000000000DD140008DD140008DD140008B5
:10006000DD140008DD140008DD140008DD140008AC
:10007000DD140008DD140008DD140008DD1400089C
:10008000DD140008DD140008DD140008DD1400088C
:10009000DD140008DD140008DD140008DD1400087C
:1000A000DD140008DD140008DD140008DD1400086C
:1000B000DD140008DD140008DD140008DD1400085C
:1000C000DD140008DD140008DD140008DD1400084C
:1000D000DD140008DD140008DD140008DD1400083C
:1000E000DD140008DD140008DD140008DD1400082C
:1000F000DD140008DD140008DD140008DD1400081C
:10010000DD140008DD140008DD140008DD1400080B
:10011000DD140008DD140008DD140008DD140008FB
:10012000DD140008DD140008DD140008DD140008EB
:10013000DD140008DD140008DD140008DD140008DB
:10014000DD140008DD140008DD140008DD140008CB
:10015000DD140008DD140008DD140008DD140008BB
:10016000DD140008DD140008DD140008DD140008AB
:10017000DD140008DD140008DD140008DD1400089B
:10018000DD140008DD14000800000000000000007D
:10019000000000000000000000000000000000005F
:0801A000DD140008DD14000865
:1001A80010B5054C237833B9044B13B10448AFF3A9
:1001B80000800123237010BD000000200000000013
:1001C800D824000808B5034B1BB103490348AFF313
:1001D800008008BD0000000004000020D8240008AA
:1001E80081F0004102E000BF83F0004330B54FEAE0
:1001F80041044FEA430594EA050F08BF90EA020F4D
:100208001FBF54EA000C55EA020C7FEA645C7FEADF
:10021800655C00F0E2804FEA5454D4EB5555B8BF02
:100228006D420CDD2C4480EA020281EA030382EA73
:10023800000083EA010180EA020281EA0303362D05
:1002480088BF30BD11F0004F4FEA01314FF4801CD8
:100258004CEA113102D0404261EB410113F0004FEA
:100268004FEA03334CEA133302D0524263EB4303A1
:1002780094EA050F00F0A780A4F10104D5F1200E3F
:100288000DDB02FA0EFC22FA05F2801841F100019A
:1002980003FA0EF2801843FA05F359410EE0A5F16E
:1002A80020050EF1200E012A03FA0EFC28BF4CF09F
:1002B800020C43FA05F3C01851EBE37101F0004555
:1002C80007D54FF0000EDCF1000C7EEB00006EEB62
:1002D8000101B1F5801F1BD3B1F5001F0CD34908EC
:1002E8005FEA30004FEA3C0C04F101044FEA445243
:1002F80012F5800F80F09A80BCF1004F08BF5FEACA
:10030800500C50F1000041EB045141EA050130BDA9
:100318005FEA4C0C404141EB0101013C28BFB1F5BB
:10032800801FE9D291F0000F04BF01460020B1FA06
:1003380081F308BF2033A3F10B03B3F120020CDAD9
:100348000C3208DD02F1140CC2F10C0201FA0CF0B7
:1003580021FA02F10CE002F11402D8BFC2F1200C1C
:1003680001FA02F120FA0CFCDCBF41EA0C019040D2
:10037800E41AA2BF01EB0451294330BD6FEA04041B
:100388001F3C1CDA0C340EDC04F11404C4F1200206
:1003980020FA04F001FA02F340EA030021FA04F318
:1003A80045EA030130BDC4F10C04C4F1200220FA6F
:1003B80002F001FA04F340EA0300294630BD21FAAD
:1003C80004F0294630BD94F0000F83F4801306BF73
:1003D80081F480110134013D4EE77FEA645C18BF67
:1003E8007FEA655C29D094EA050F08BF90EA020FFE
:1003F80005D054EA000C04BF1946104630BD91EAF6
:10040800030F1EBF0021002030BD5FEA545C05D1F8
:100418004000494128BF41F0004130BD14F5800437
:100428003CBF01F5801130BD01F0004545F0FE41AB
:1004380041F470014FF0000030BD7FEA645C1ABFE0
:10044800194610467FEA655C1CBF0B46024650EA17
:10045800013406BF52EA033591EA030F41F4002143
:1004680030BD00BF90F0000F04BF0021704730B5C9
:100478004FF4806404F132044FF000054FF000019E
:1004880050E700BF90F0000F04BF0021704730B55F
:100498004FF4806404F1320410F0004548BF404234
:1004A8004FF000013EE700BF42004FEAE2014FEA89
:1004B80031014FEA02701FBF12F07F4393F07F4F64
:1004C80081F06051704732F07F4208BF704793F067
:1004D8007F4F04BF41F40021704730B54FF460747A
:1004E80001F0004521F000411CE700BF50EA01027D
:1004F80008BF704730B54FF000050AE050EA010226
:1005080008BF704730B511F0004502D5404261EB95
:1005180041014FF4806404F132045FEA915C3FF4D6
:10052800D8AE4FF003025FEADC0C18BF03325FEA73
:10053800DC0C18BF033202EBDC02C2F1200300FA24
:1005480003FC20FA02F001FA03FE40EA0E0021FA49
:1005580002F11444BDE600BF70B54FF0FF0C4CF437
:10056800E06C1CEA11541DBF1CEA135594EA0C0FE9
:1005780095EA0C0F00F0DEF82C4481EA030621EA24
:100588004C5123EA4C5350EA013518BF52EA03355F
:1005980041F4801143F4801338D0A0FB02CE4FF011
:1005A8000005E1FB02E506F00042E0FB03E54FF041
:1005B8000006E1FB03569CF0000F18BF4EF0010E39
:1005C800A4F1FF04B6F5007F64F5407404D25FEA35
:1005D8004E0E6D4146EB060642EAC62141EA5551E8
:1005E8004FEAC52040EA5E504FEACE2EB4F1FD0C2A
:1005F80088BFBCF5E06F1ED8BEF1004F08BF5FEAA8
:10060800500E50F1000041EB045170BD06F0004659
:1006180046EA010140EA020081EA0301B4EB5C0406
:10062800C2BFD4EB0C0541EA045170BD41F48011FE
:100638004FF0000E013C00F3AB8014F1360FDEBF23
:10064800002001F0004170BDC4F10004203C35DAFF
:100658000C341BDC04F11404C4F1200500FA05F382
:1006680020FA04F001FA05F240EA020001F0004223
:1006780021F0004110EBD37021FA04F642EB060199
:100688005EEA430E08BF20EAD37070BDC4F10C04C3
:10069800C4F1200500FA04F320FA05F001FA04F287
:1006A80040EA020001F0004110EBD37041F1000173
:1006B8005EEA430E08BF20EAD37070BDC4F120057E
:1006C80000FA05F24EEA020E20FA04F301FA05F2E6
:1006D80043EA020321FA04F001F0004121FA04F28E
:1006E80020EA020000EBD3705EEA430E08BF20EA5E
:1006F800D37070BD94F0000F0FD101F00046400098
:1007080041EB010111F4801F08BF013CF7D041EA19
:10071800060195F0000F18BF704703F0004652001D
:1007280043EB030313F4801F08BF013DF7D043EAEE
:100738000603704794EA0C0F0CEA135518BF95EAA4
:100748000C0F0CD050EA410618BF52EA4306D1D12B
:1007580081EA030101F000414FF0000070BD50EA4A
:10076800410606BF1046194652EA430619D094EAD4
:100778000C0F02D150EA013613D195EA0C0F05D1BE
:1007880052EA03361CBF104619460AD181EA030112
:1007980001F0004141F0FE4141F470014FF00000CA
:1007A80070BD41F0FE4141F4780170BD70B54FF065
:1007B800FF0C4CF4E06C1CEA11541DBF1CEA1355E5
:1007C80094EA0C0F95EA0C0F00F0A7F8A4EB0504C7
:1007D80081EA030E52EA03354FEA013100F08880BE
:1007E8004FEA03334FF0805545EA131343EA126387
:1007F8004FEA022245EA111545EA10654FEA00263C
:100808000EF000419D4208BF964244F1FD0404F5F4
:10081800407402D25B084FEA3202B61A65EB030550
:100828005B084FEA32024FF480104FF4002CB6EB0D
:10083800020E75EB030E22BFB61A754640EA0C008D
:100848005B084FEA3202B6EB020E75EB030E22BFCD
:10085800B61A754640EA5C005B084FEA3202B6EB0E
:10086800020E75EB030E22BFB61A754640EA9C00CD
:100878005B084FEA3202B6EB020E75EB030E22BF9D
:10088800B61A754640EADC0055EA060E18D04FEA5B
:10089800051545EA16754FEA06164FEAC30343EAFB
:1008A80052734FEAC2025FEA1C1CC0D111F4801FC8
:1008B8000BD141EA00014FF000004FF0004CB6E7C1
:1008C80011F4801F04BF01430020B4F1FD0C88BF60
:1008D800BCF5E06F3FF6AFAEB5EB030C04BFB6EB6B
:1008E800020C5FEA500C50F1000041EB045170BD5E
:1008F8000EF0004E4EEA113114EB5C04C2BFD4EB8B
:100908000C0541EA045170BD41F480114FF0000E0E
:10091800013C90E645EA060E8DE60CEA135594EA8A
:100928000C0F08BF95EA0C0F3FF43BAF94EA0C0F8D
:100938000AD150EA01347FF434AF95EA0C0F7FF402
:1009480025AF104619462CE795EA0C0F06D152EA56
:1009580003353FF4FDAE1046194622E750EA41063A
:1009680018BF52EA43067FF4C5AE50EA41047FF44B
:100978000DAF52EA43057FF4EBAE12E74FF0FF3CB0
:1009880006E000BF4FF0010C02E000BF4FF0010C81
:100998004DF804CD4FEA410C7FEA6C5C4FEA430CFA
:1009A80018BF7FEA6C5C1BD001B050EA410C0CBF49
:1009B80052EA430C91EA030F02BF90EA020F0020AB
:1009C800704710F1000F91EA030F58BF994208BF12
:1009D80090422CBFD8176FEAE37040F001007047CF
:1009E8004FEA410C7FEA6C5C02D150EA013C07D126
:1009F8004FEA430C7FEA6C5CD6D152EA033CD3D071
:100A08005DF8040B704700BF8446104662468C466A
:100A18001946634600E000BF01B5FFF7B7FF00289D
:100A280048BF10F1000F01BD4DF808EDFFF7F4FFC6
:100A38000CBF012000205DF808FB00BF4DF808ED51
:100A4800FFF7EAFF34BF012000205DF808FB00BF74
:100A58004DF808EDFFF7E0FF94BF012000205DF896
:100A680008FB00BF4DF808EDFFF7CEFF94BF01204B
:100A780000205DF808FB00BF4DF808EDFFF7C4FF44
:100A880034BF012000205DF808FB00BF4FEA410297
:100A980012F5001215D211D56FF47873B3EB6252C8
:100AA80012D94FEAC12343F0004343EA505311F0EF
:100AB800004F23FA02F018BF404270474FF0000081
:100AC800704750EA013005D111F0004008BF6FF0BF
:100AD800004070474FF00000704700BF4FEA4102E6
:100AE800B2F1E04324BFB3F5001CDCF1FE5C0DD984
:100AF80001F0004C4FEAC0024CEA5070B2F1004FCE
:100B080040EB830008BF20F00100704711F0804FD0
:100B180021D113F13872BCBF01F00040704741F495
:100B280080114FEA5252C2F11802C2F1200C10FA99
:100B38000CF320FA02F018BF40F001004FEAC1237D
:100B48004FEAD32303FA0CFC40EA0C0023FA02F321
:100B58004FEA4303CCE77FEA625307D150EA0133F7
:100B68001EBF4FF0FE4040F44000704701F00040C7
:100B780040F0FE4040F40000704700BF80F00040A5
:100B880002E000BF81F0004142001FBF5FEA41035D
:100B980092EA030F7FEA226C7FEA236C6AD04FEA5D
:100BA8001262D2EB1363C1BFD218414048404140A2
:100BB800B8BF5B42192B88BF704710F0004F40F454
:100BC800000020F07F4018BF404211F0004F41F470
:100BD800000121F07F4118BF494292EA030F3FD03C
:100BE800A2F1010241FA03FC10EB0C00C3F120034F
:100BF80001FA03F100F0004302D5494260EB4000DE
:100C0800B0F5000F13D3B0F1807F06D340084FEA48
:100C1800310102F10102FE2A51D2B1F1004F40EB3D
:100C2800C25008BF20F0010040EA030070474900A5
:100C380040EB0000013A28BFB0F5000FEDD2B0FA42
:100C480080FCACF1080CB2EB0C0200FA0CF0AABF65
:100C580000EBC25052421843BCBFD0401843704703
:100C680092F0000F81F4000106BF80F40000013209
:100C7800013BB5E74FEA41037FEA226C18BF7FEAE0
:100C8800236C21D092EA030F04D092F0000F08BF22
:100C98000846704790EA010F1CBF0020704712F009
:100CA8007F4F04D1400028BF40F00040704712F148
:100CB80000723CBF00F50000704700F0004343F0AD
:100CC800FE4040F4000070477FEA226216BF0846E3
:100CD8007FEA23630146420206BF5FEA412390EAA6
:100CE800010F40F4800070474FF0000304E000BF9C
:100CF80010F0004348BF40425FEA000C08BF70474D
:100D080043F0964301464FF000001CE050EA010210
:100D180008BF70474FF000030AE000BF50EA010225
:100D280008BF704711F0004302D5404261EB410112
:100D38005FEA010C02BF84460146002043F0B64337
:100D480008BFA3F18053A3F50003BCFA8CF2083A5C
:100D5800A3EBC25310DB01FA02FC634400FA02FC65
:100D6800C2F12002BCF1004F20FA02F243EB02006C
:100D780008BF20F00100704702F1200201FA02FCCE
:100D8800C2F1200250EA4C0021FA02F243EB0200C1
:100D980008BF20EADC7070474FF0FF0C1CEAD05205
:100DA8001EBF1CEAD15392EA0C0F93EA0C0F6FD0C6
:100DB8001A4480EA010C400218BF5FEA41211ED0A4
:100DC8004FF0006343EA501043EA5111A0FB013190
:100DD8000CF00040B1F5000F3EBF490041EAD37165
:100DE8005B0040EA010062F17F02FD2A1DD8B3F1E1
:100DF800004F40EBC25008BF20F00100704790F050
:100E0800000F0CF0004C08BF49024CEA502040EAA1
:100E180051207F3AC2BFD2F1FF0340EAC250704767
:100E280040F400004FF00003013A5DDC12F1190FA5
:100E3800DCBF00F000407047C2F10002410021FA17
:100E480002F1C2F1200200FA02FC5FEA310040F12F
:100E5800000053EA4C0308BF20EADC70704792F0A8
:100E6800000F00F0004C02BF400010F4000F013AE0
:100E7800F9D040EA0C0093F0000F01F0004C02BFDB
:100E8800490011F4000F013BF9D041EA0C018FE74A
:100E98000CEAD15392EA0C0F18BF93EA0C0F0AD050
:100EA80030F0004C18BF31F0004CD8D180EA010076
:100EB80000F00040704790F0000F17BF90F0004F0F
:100EC800084691F0000F91F0004F14D092EA0C0FF1
:100ED80001D142020FD193EA0C0F03D14B0218BF84
:100EE800084608D180EA010000F0004040F0FE40CA
:100EF80040F40000704740F0FE4040F44000704766
:100F08004FF0FF0C1CEAD0521EBF1CEAD15392EAE4
:100F18000C0F93EA0C0F69D0A2EB030280EA010CD4
:100F280049024FEA402037D04FF0805343EA11116D
:100F380043EA10130CF000408B4238BF5B0042F1CB
:100F48007D024FF4000C8B4224BF5B1A40EA0C0070
:100F5800B3EB510F24BFA3EB510340EA5C00B3EBA2
:100F6800910F24BFA3EB910340EA9C00B3EBD10F90
:100F780024BFA3EBD10340EADC001B0118BF5FEAE2
:100F88001C1CE0D1FD2A3FF650AF8B4240EBC2500B
:100F980008BF20F0010070470CF0004C4CEA5020CC
:100FA8007F32C2BFD2F1FF0340EAC250704740F41B
:100FB80000004FF00003013A37E792F0000F00F00D
:100FC800004C02BF400010F4000F013AF9D040EA8B
:100FD8000C0093F0000F01F0004C02BF490011F41F
:100FE800000F013BF9D041EA0C0195E70CEAD15317
:100FF80092EA0C0F08D142027FF47DAF93EA0C0FFE
:101008007FF470AF084676E793EA0C0F04D14B02E1
:101018003FF44CAF08466EE730F0004C18BF31F093
:10102800004CCAD130F000427FF45CAF31F000438D
:101038007FF43CAF5FE700BF4FF0FF3C06E000BF26
:101048004FF0010C02E000BF4FF0010C4DF804CD49
:101058004FEA40024FEA41037FEA226C18BF7FEA59
:10106800236C11D001B052EA530C18BF90EA010F5B
:1010780058BFB2EB030088BFC81738BF6FEAE170EA
:1010880018BF40F0010070477FEA226C02D15FEA86
:10109800402C05D17FEA236CE4D15FEA412CE1D0F2
:1010A8005DF8040B704700BF844608466146FFE7B9
:1010B8000FB5FFF7C9FF002848BF10F1000F0FBD9B
:1010C8004DF808EDFFF7F4FF0CBF012000205DF894
:1010D80008FB00BF4DF808EDFFF7EAFF34BF012019
:1010E80000205DF808FB00BF4DF808EDFFF7E0FFB2
:1010F80094BF012000205DF808FB00BF4DF808ED03
:10110800FFF7D2FF94BF012000205DF808FB00BF65
:101118004DF808EDFFF7C8FF34BF012000205DF847
:1011280008FB00BF42000ED2B2F1FE4F0BD34FF0C6
:101138009E03B3EB126209D44FEA002343F0004345
:1011480023FA02F070474FF00000704712F1610F68
:1011580001D1420202D14FF0FF3070474FF000003A
:10116800704700BF0000000080B588B000AF00F0F5
:10117800C3F800F00FF900F031F9594BBB614FF09B
:101188000003FB61574B7B61F869FFF78DF9024655
:101198000B461046194600F0C3F94FF00002524BB7
:1011A800FFF724F802460B461046194644A3D3E934
:1011B8000023FFF7D1F902460B4610461946FFF700
:1011C8008DFC03463B613869FFF7ACFF0346FB60C3
:1011D800464AFB685363454AFB689363434AFB6886
:1011E800D363424AFB6813647969F869FFF7CCFC5A
:1011F8000346FB61F869FFF757F933A3D3E90023E6
:10120800FFF7AAF902460B461046194600F088F97E
:101218004FF00002344BFEF7E9FF02460B4610463A
:1012280019462BA3D3E90023FFF796F902460B468C
:10123800104619464FF000024FF08043FFF7B6FA08
:1012480002460B461046194623A3D3E90023FEF7AE
:10125800CDFF02460B4610461946FFF73FFC0346F2
:10126800BB602349B868FFF797FD03461946214834
:10127800FFF746FE03461846FFF754FF03467B6018
:10128800786800F0EDF8BB6919461846FFF77CFC52
:1012980003461946F869FFF731FF0346002B0BD0C8
:1012A800BB6919461846FFF76FFC03461946F869EB
:1012B800FFF768FC0346FB6166E700BFAFF30080F9
:1012C8000000000000387F409A9999999999A93FA0
:1012D800666666666666FE3F9A9999999999B93FD6
:1012E800DB0F49400AD7A33B0000F03F000800404D
:1012F80000007A440024744980B400AF224B1B6874
:10130800214A43F48033136000BF1F4B1B6803F46A
:101318000033002BF9D01D4B1B681C4A43F0050312
:101328001360194B1A4A5A60174B1B68164A43F048
:101338008073136000BF144B1B6803F00073002B0D
:10134800F9D0114B104A9B6893600F4B9B680E4A6B
:1013580043F4A05393600C4B9B680B4A43F400433F
:101368009360094B9B68084A43F00203936000BFEF
:10137800054B9B6803F00C03082BF9D100BF00BF95
:10138800BD4680BC704700BF00380240003C0240A8
:10139800082A400780B400AF0E4B1B6B0D4A43F080
:1013A800080313630C4B1B680B4A23F07F4313603D
:1013B800094B1B68084A43F02A431360064B5B6AD3
:1013C800054A43F0085343F40813536200BFBD466F
:1013D80080BC704700380240000C024080B400AF67
:1013E8001D4B1B6C1C4A43F0040313641B4B532214
:1013F8009A621A4B40F2E732DA62184B9B69174A35
:1014080043F4C04343F060039361144BDB69134A10
:1014180043F4C04343F06003D361104B1B6A0F4A87
:1014280043F4885343F0110313620C4B1B680B4AB7
:1014380043F080031360094B5B69084A43F00103DA
:101448005361064B1B68054A43F00103136000BF54
:10145800BD4680BC704700BF00380240000800400D
:1014680080B483B000AF786000E000BF7B685A1E8C
:101478007A60002BF9D100BF00BF0C37BD4680BC95
:10148800704700000D488546AFF300800C480D49B1
:101498000D4A002302E0D458C4500433C4188C42C7
:1014A800F9D30A4A0A4C002301E013600432A2422D
:1014B800FBD300F011F8FFF757FEFEE7000002200B
:1014C8000000002000000020D026000800000020B6
:1014D8001C000020FEE7000070B50D4D0D4C641B8C
:1014E800A4100026A64209D10B4D0C4C00F0F0FFC9
:1014F800641BA4100026A64205D170BD55F8043B14
:1015080098470136EEE755F8043B98470136F2E76D
:10151800C8260008C8260008C8260008CC260008E7
:1015280030B5204D21F00044AC4287B002460B464E
:1015380006D8002300930022002300F0F9F804E005
:10154800194DAC4203D9FEF74FFE07B030BD02AAD1
:1015580000F0A6F900F00300012809D002280ED0F7
:10156800C0B901230093DDE90201DDE90423E4E7C2
:10157800DDE90423DDE9020100F01AF8E5E70123BB
:101588000093DDE90201DDE9042300F0D1F801F15F
:101598000041DAE7DDE90423DDE9020100F008F89B
:1015A800F5E700BFFB21E93FFFFFEF7F00000000E8
:1015B8002DE9F74F21F00046B6F1795FCDE9002318
:1015C8008046894604D2FFF761FA002800F0868039
:1015D80042464B4640464946FEF7BEFF4E4B002268
:1015E80004460D46FEF7B8FF3FA3D3E90023824621
:1015F8008B4620462946FEF7AFFF3DA3D3E90023DB
:10160800FEF7F4FD22462B46FEF7A6FF3AA3D3E9E0
:101618000023FEF7E9FD22462B46FEF79DFF38A37F
:10162800D3E90023FEF7E2FD22462B46FEF794FF9E
:1016380035A3D3E90023FEF7D7FD22462B46FEF754
:101648008BFF33A3D3E90023FEF7D0FD22462B46B8
:10165800FEF782FF22462B46FEF77EFFDDE90023D8
:1016680004460D4640464946FEF776FF0B460246BD
:1016780029462046FEF7B8FD284B9E4280468946FB
:101688000ED802460B4650465946FEF7ADFD0B46AE
:10169800234902460020FEF7A7FD03B0BDE8F08FFE
:1016A800204B1F499E428CBF1F4DA6F500150024F4
:1016B80022462B460020FEF797FD224606460F4697
:1016C8002B4650465946FEF78FFD42464B46FEF7DD
:1016D8008BFD02460B4630463946DCE710490020B0
:1016E800DBE700BFAFF30080D43888BEE9FAA8BDB5
:1016F800C4B1B4BD9EEE213EAD529C804F7E923E59
:101708009015CB19A001FA3E7751C1166CC1563F0E
:101718004C5555555555A53F0000E03F3233D33F52
:101728000000F03F0000E93F0000D23F0000000049
:101738002DE9F04F1F4621F00043B3F1795F85B0E2
:1017480004460D46164603D2FFF7A0F9002851D0EB
:1017580022462B4620462946FEF7FEFE82468B4649
:1017680002460B4620462946FEF7F6FE3EA3D3E97D
:1017780000238046894650465946FEF7EDFE3CA3B5
:10178800D3E90023FEF730FD52465B46FEF7E4FE40
:1017980039A3D3E90023FEF729FD52465B46FEF73D
:1017A800DBFE37A3D3E90023FEF71EFD52465B4656
:1017B800FEF7D2FE34A3D3E90023FEF717FD0E9BF4
:1017C800CDE90001DBB902460B4650465946FEF703
:1017D800C3FE2FA3D3E90023FEF706FD42464B467E
:1017E800FEF7BAFE02460B4620462946FEF7FEFCE7
:1017F80004460D462046294605B0BDE8F08F264B25
:10180800002230463946FEF7A7FEDDE90023CDE980
:10181800020140464946FEF79FFE02460B46DDE9B7
:101828000201FEF7E1FC52465B46FEF795FE3246A2
:101838003B46FEF7D9FC16A3D3E9002306460F461C
:1018480040464946FEF788FE02460B463046394672
:10185800FEF7CCFC02460B4620462946FEF7C4FCA0
:10186800C6E700BFAFF300807CD5CF5A3AD9E53D33
:10187800EB9C2B8AE6E55A3E7DFEB157E31DC73E39
:10188800D561C119A0012A3FA6F810111111813F95
:10189800495555555555C53F0000E03F000000002B
:1018A8002DE9F04FC44B8DB021F00048984506460D
:1018B8000F461446049107D8C2E9006700230022A6
:1018C800C4E90223002526E0BC4B984576D8049B42
:1018D800BB4D002BAAA3D3E9002338DDFEF784FC17
:1018E800A84506460F461AD0A7A3D3E90023FEF75A
:1018F8007BFC02460B468046894630463946FEF751
:1019080073FCA1A3D3E90023FEF76EFCC4E90089A8
:10191800C4E90201012528460DB0BDE8F08F9CA35B
:10192800D3E90023FEF760FC9BA3D3E90023064616
:101938000F46FEF759FC02460B468046894630465C
:101948003946FEF751FC94A3D3E90023DCE7FEF700
:101958004DFCA84506460F4618D08BA3D3E90023B3
:10196800FEF744FC02460B46804689463046394617
:10197800FEF73AFC84A3D3E90023FEF737FC4FF0C7
:10198800FF35C4E90089C4E90201C4E780A3D3E9AB
:101998000023FEF72BFC80A3D3E9002306460F465D
:1019A800FEF724FC02460B468046894630463946F7
:1019B800FEF71AFC78A3D3E90023DEE7814B9845AC
:1019C80000F2CF8000F062F975A3D3E90023064640
:1019D8000F46FEF7C1FD7C4B0022FEF707FCFFF720
:1019E80055F80546FEF74EFD02460B46CDE90223A3
:1019F80063A3D3E90023FEF7AFFD02460B4630464A
:101A08003946FEF7F1FB60A3D3E9002382468B46F3
:101A1800DDE90201FEF7A0FD1F2D06460F460CDC8E
:101A28006A4B6A1E53F82230434506D032463B467D
:101A380050465946FEF7D8FB0EE03B463246504624
:101A48005946FEF7D1FB4FEA28530593C1F30A53D1
:101A5800C3EB1853102B02DCC4E9000139E04CA396
:101A6800D3E90023DDE90201FEF776FD06460F46BD
:101A780002460B4650465946FEF7B6FB02460B4651
:101A88008046894650465946FEF7AEFB32463B46ED
:101A9800FEF7AAFB40A3D3E9002306460F46DDE97B
:101AA8000201FEF759FD32463B46FEF79DFB024612
:101AB8000B4606460F4640464946FEF795FB059AF3
:101AC800C1F30A53D31A312B20DCC4E90001C24602
:101AD800CB46D4E90089504642464B465946FEF764
:101AE80083FB3B463246FEF77FFB049B002BC4E991
:101AF8000201BFF610AF09F10043636001F1004332
:101B0800C4F80080A060E3606D4204E726A3D3E92F
:101B18000023DDE90201FEF71FFD06460F460246D7
:101B28000B4640464946FEF75FFB02460B46824697
:101B38008B4640464946FEF757FB32463B46FEF782
:101B480053FB1BA3D3E9002306460F46DDE9020138
:101B5800FEF702FD32463B46FEF746FB06460F46B9
:101B680064E71B4B984535D902460B46FEF73CFB0C
:101B7800C4E90201C4E90001A4E600BFAFF3008094
:101B880000004054FB21F93F3163621A61B4D03D33
:101B98000000601A61B4D03D7370032E8A19A33B0C
:101BA80083C8C96D305FE43F0000002E8A19A33B4B
:101BB800C14920259A837B39FB21E93F7BD9024023
:101BC800FB21F93FFB2139410000E03FF0240008E8
:101BD800FFFFEF7F4FEA2855A5F21645A8EB055100
:101BE8000F46FEF753FFFEF74DFC02460B46304604
:101BF8003946CDE90623FEF7F7FA224B0022FEF715
:101C0800ABFC0F460646FEF741FFFEF73BFC0246DB
:101C18000B4630463946CDE90823FEF7E5FA194B5D
:101C28000022FEF799FCCDE90A010DF130094FF0C9
:101C380003080026002779E9020132463B46C246DE
:101C480008F1FF38FEF7F0FE0028F4D10E4B01939F
:101C5800022300932A465346214606A800F01AF8A4
:101C6800049B002B0546BFF656AED4E9002101F1CE
:101C78000043C4E90023D4E9022101F10043C4E987
:101C8800022341E7000070417025000821F000435D
:101C9800194670472DE9F04FADF5197D12F1140F73
:101CA80008930491B54BA299099053F821300293F7
:101CB800089B03F1FF33A8BFD41E0693B2BF0024CC
:101CC800182394FBF3F46FF0170304FB033303EBBF
:101CD800020A069A029B03EB0208A39BA71A03EBCE
:101CE800870920AE002500220023454514DD089A07
:101CF80020AB03EBC2050DF5E07B4FF00008029B1B
:101D0800984536DC099B0022A3F108090023CDE998
:101D180000232F4600261FE0EF420BD459F8250078
:101D2800CDE90023FEF7AEFBDDE90023E6E802017A
:101D38000135DAE710461946F8E7D7E90023F9E94B
:101D48000201FEF709FC02460B46DDE90001FEF739
:101D58004DFACDE900010136069B9E42A7F108071E
:101D6800EBDDDDE9002308F10108EBE80223083583
:101D7800C5E7029BDDF808B00CAA02EB83030B93BE
:101D8800A39B03EB84030A9398AB03EBCB0353E9C0
:101D9800284570AB03EBCB030CAE07939846B146CE
:101DA8005F46002FA8F1080871DC524620462946F4
:101DB80000F096FA00224FF07F5304460D46FEF7D6
:101DC800CBFB00F005FB6E4B0022FEF7C5FB02467D
:101DD8000B4620462946FEF707FA0D460446FEF74D
:101DE80055FE0590FEF74EFB02460B462046294657
:101DF800FEF7FAF9BAF1000F804689466DDD0BF15E
:101E0800FF310CAB059C53F82130CAF1180043FA96
:101E180000F2144482409B1A0CAA059442F821301F
:101E2800CAF1170213410093009B002B64DD059B48
:101E380000220133059314466FF07F41934500F368
:101E4800AB80BAF1000F07DDBAF1010F00F0B280E4
:101E5800BAF1020F00F0B980009B022B4CD1424628
:101E68004B4648490020FEF7BFF980468946002CBA
:101E780042D052464349002000F032FA02460B464F
:101E880040464946FEF7B0F98046894634E03E4B65
:101E9800002220462946FEF75FFBFEF7F7FDFEF716
:101EA800F1FA02460B46CDE90023384B0022FEF733
:101EB80053FB02460B4620462946FEF795F9FEF7E6
:101EC800E5FDD8E9002349F8040BDDE90001FEF738
:101ED8008DF9013F04460D4663E706D10BF1FF3348
:101EE8000CAA52F82330DB159DE7294B0022FEF798
:101EF800B9FD00283FD10090002200234046494602
:101F0800FEF792FD002800F0AF800BF1FF330022AE
:101F180002998B4261DA002A76D00BF1FF3B0CABB9
:101F2800AAF1180A53F82B30002BF6D0524615495F
:101F3800DFF854A0002000F0D3F970AB06460F4636
:101F48004FEACB0403EBCB085D464FF00009002DA8
:101F580080F2C0805D46002DC0F2F0800D4B0693E4
:101F680070AB03EBC5084FF000094FF0000A0027DB
:101F7800ABEB0506D6E00223009358E7B826000825
:101F8800000020400000F03F0000703E000070415B
:101F98000000E03F7826000856F8043B44B923B116
:101FA800C3F1807346F8043C012301321C4645E71F
:101FB800CB1AF7E70BF1FF320CAB53F82230C3F31F
:101FC80016030CA941F8223046E70BF1FF320CAB9F
:101FD80053F82230C3F31503F3E70CA951F8231083
:101FE800013B0A4394E7013453F8042D002AFAD040
:101FF800089B20AA5B440BF1010802EBC3055C4473
:10200800444504DAA346BFE60B9B0124ECE70A9B90
:1020180053F82800FEF736FA099BC5E90001083B8A
:102028000093AB464FF0000900260027069B994510
:1020380007DD079BE3E9026708F101080793083504
:10204800DEE70099F1E9022300917BE80201FEF73F
:1020580083FA02460B4630463946FEF7C7F809F1BF
:10206800010906460F46E1E7CAF100024046494623
:1020780000F036F9974B002204460D46FEF7F2FCB5
:1020880000B3954B002220462946FEF765FAFEF775
:10209800FDFC0646FEF7F6F98E4B0022FEF75CFAC9
:1020A8000B46024629462046FEF79EF8FEF7EEFC50
:1020B8000CAB0AF1180A43F82B000BF1010B43F89B
:1020C8002B6033E720462946FEF7E0FC0CAB43F8CB
:1020D8002B002BE70CAB53F82500FEF7D3F932465B
:1020E8003B46FEF739FA4A4668E80201534630464D
:1020F8003946FEF731FA013D06460F4627E7DDF877
:1021080018C0FCE80201F8E80223CDF818C0FEF771
:1021180023FA02460B4648465146FEF767F8013750
:1021280081468A46029B9F4201DCBE42E7DA48AB01
:1021380003EBC606C6E9009A013D0CE7A29B022BF9
:1021480009DC002B2CDC4ED0059B03F007000DF5B5
:10215800197DBDE8F08FA29B032BF5D148AB1C4439
:102168002546DA46BAF1000F63DC2546DA46BAF1AD
:10217800010F7BDC00200021BBF1010F00F39380ED
:10218800009BDDE94878DDE94A56002B40F0928053
:10219800049BC3E90078C3E90256C3E90401D3E705
:1021A80048AB1C445D4600200021002D32DA009B1C
:1021B800002B35D0024601F10043049CC4E90023FA
:1021C80002460B46DDE94801FEF70EF848AC01254A
:1021D800AB4528DA009B13B101F100431946049B73
:1021E800C3E90201B0E748AB1C4400200021BBF161
:1021F800000F08DA009B13B101F100431946049B54
:10220800C3E90001A0E774E80223FDF7EFFF0BF133
:10221800FF3BECE774E80223FDF7E8FF013DC4E764
:1022280002460B46C9E7F4E90223FDF7DFFF013553
:10223800CEE755E90289D5E9002340464946CDE96C
:102248000223FDF7D3FF02460B4606460F464046DB
:102258004946FDF7C9FFDDE90223FDF7C7FF65E839
:1022680002010AF1FF3AC5E900677BE755E90289EF
:10227800D5E9002340464946CDE90223FDF7B6FFDC
:1022880002460B4606460F4640464946FDF7ACFF58
:10229800DDE90223FDF7AAFF65E802010AF1FF3A2A
:1022A800C5E9006763E774E80223FDF79FFF0BF1B8
:1022B800FF3B61E7049B049A1F6008F100445C60DF
:1022C8009D6006F10043D36001F100431061536142
:1022D8003AE700BF000070410000703E00000000B7
:1022E8002DE9F0481646C1F30A5283468C460B4640
:1022F80082B921F00043034339D02F4B0022FEF767
:102308002BF92E4B9E4283468C460DDA26A3D3E941
:1023180000231BE040F2FF77BA4209D10246FDF7DD
:1023280065FF83468C4622E0C1F30A520B46363AD3
:102338004CF250318E420CDD1DA3D3E900234FEA45
:10234800DC711C4661F3DF741D482146FEF704F971
:10235800E7E7324440F2FE718A42EDDC002A0ADDEA
:1023680023F0FF4323F4E00343EA0255AC46584602
:102378006146BDE8F08812F1350F09DA0CF0004328
:1023880043F0D27141F4B7310E4841F01F01BDE767
:1023980023F0FF43363223F4E00343EA025558465C
:1023A800094B29460022D1E759F3F8C21F6EA5014F
:1023B8009C7500883CE4377E00005043B03CFFFF2A
:1023C8009C75008859F3F8C20000903C000000009A
:1023D8002DE9F041C1F30A57A7F2FF36132E024642
:1023E8000B460C460546804635DC002E17DA34A32A
:1023F800D3E90023FDF7FAFE00220023FEF73CFB99
:1024080050B1002C57DA24F000442C430025AC428C
:102418002D4C08BF4FF0004423462A4624E02B4F9A
:10242800374101EA070C5CEA000C1DD024A3D3E96C
:102438000023FDF7DBFE00220023FEF71DFB00282A
:10244800EAD0002CBEBF4FF480133341E41824EACD
:1024580007040025E0E7332E0ADDB6F5806F03D1C7
:10246800FDF7C4FE02460B4610461946BDE8F0814A
:10247800A7F213474FF0FF3C2CFA07F70742F3D0B7
:102488000FA3D3E90023FDF7B1FE00220023FEF7D6
:10249800F3FA0028C0D0002C0ADA142E01D1013436
:1024A80006E0C6F134060123B3401D444545F6D382
:1024B80025EA0705B0E700252C46ADE7AFF3008015
:1024C8009C7500883CE4377E0000F0BFFFFF0F00DA
:1024D800F8B500BFF8BC08BC9E467047F8B500BF09
:0824E800F8BC08BC9E467047D9
:1024F000FB21F93FFB2109407CD91240FB21194007
:102500007A6A1F407CD92240BBFD2540FB2129402F
:102510003A462C407A6A2F405C4731407CD93240A1
:102520009C6B3440BBFD3540DB8F3740FB2139408D
:102530001BB43A403A463C405AD83D407A6A3F4044
:102540004C7E40405C4741406C1042407CD9424048
:102550008CA243409C6B4440AC344540BBFD45409D
:10256000CBC64640DB8F4740EB584840FB214940F3
:1025700083F9A200444E6E00FC291500D1572700B4
:10258000DD34F50062DBC0003C99950041904300CA
:102590006351FE00BBDEAB00B761C5003A6E24009C
:1025A000D24D42004906E00009EA2E001C92D100FB
:1025B000EB1DFE0029B11C00E83EA700F5358200A6
:1025C00044BB2E009CE98400B4267000417E5F006D
:1025D000D6913900538339009CF439008B5F840015
:1025E00028F9BD00F81F3B00DEFF97000F9805009B
:1025F000112FEF000A5A8B006D1F6D00CF7E360041
:1026000009CB2700464FB7009E663F002DEA5F00CA
:10261000BA277500E5EBC7003D7BF100F7390700ED
:1026200092528A00FB6BEA001FB15F00085D8D00CB
:10263000300356007BFC4600F0AB6B0020BCCF00A3
:1026400036F49A00E3A91D005E619100081BE600C4
:1026500085996500A0145F008D40680080D8FF0058
:1026600027734D0006063100CA561500C9A873002D
:102670007BE260006B8CC00000000040FB21F93F52
:10268000000000002D44743E000000809846F83C95
:102690000000006051CC783B00000080831BF039C3
:1026A0000000004020257A38000000802282E336B6
:1026B000000000001DF36935020000000300000067
:0826C000040000000600000008
:0426C800CD01000838
:0426CC00A901000858
:040000050800148D4E
:00000001FF
